:020000040020DA
:109F0000154800F02DF8154C0025A561A56200F05C
:109F100075FD01F0BAFB10B10120A07001E000F066
:109F2000CBFD01F067F802F0B1FB00F052FD656275
:109F300000F09AFC0028FBD008495820491C002258
:109F4000087006480121401C02F0CEFB00220123CC
:109F50001146501E00F08CF868CE200054C8200036
:109F6000854670470047EFF3108072B6704780F364
:109F70001088704708B50346A3F1010303B1FBE75E
:109F800008BDF8B5044616464FF008054FF08002AC
:109F900000EA02004FF0010208B94FEA5202144BE6
:109FA0001F68A7F1010707B1FBE7336803F0EF0370
:109FB00033600A600F4B1F68A7F1010707B1FBE789
:109FC000336843F0100333600A60336803F0100312
:109FD00003B9FAE74FEA44042046A5F1010505B1AB
:109FE000D4E74FF00100324600F006F8F8BD00005B
:109FF000C4C82000C8C8200078B515464FF001023B
:10A0000008B94FEA5202114B1F68A7F1010707B1C7
:10A01000FBE72C6804F0EF042C600A600C4B1F680F
:10A02000A7F1010707B1FBE74FF004034FF44B76AC
:10A030004FEA06362C6844F010042C600A602C6845
:10A0400004F0100404B9FAE7F05878BDC4C8200041
:10A05000C8C82000F9480121C160F9490A6842F4E2
:10A0600080420A60F74901604FF003018160FEE71A
:10A0700000204FF47A51401C8842FCD303B90022DF
:10A08000F148016821F02201016042F00100FFF770
:10A09000E1FF70B504460D462EE002F009FBA0F189
:10A0A0003001092901D800010EE0A0F14101052984
:10A0B00003D80001A0F55C7006E0A0F1610105295C
:10A0C0001ED80001A0F5AE60C6B202F0F1FAA0F110
:10A0D0003001092901D80E430BE0A0F14101052907
:10A0E00001D8373804E0A0F16101052908D85738B4
:10A0F000064304F8016B6D1E002DCED1012070BD0A
:10A10000002070BD10B500F01CFD38B101F0CCFA94
:10A1100020B101F02EF908B1012010BD002010BDC2
:10A1200070B5CA4E0024A6F10D050DE0A878315D8A
:10A1300000282869204402D001F0DCFA01E000F098
:10A1400021FD002804D0641C68698442EEDB0120F4
:10A1500070BD30B5002306E0C45CCD5CAC4201D0DC
:10A16000002030BD5B1C9342F6DB012030BD10B5F2
:10A17000B64C0D3C22692AB16269002A12DB032A1F
:10A1800010D002E00022C4E90402B04B99542169C6
:10A190001144814212D1521CAD491846FFF7D9FF34
:10A1A00050B901E0002010BD6269A949521CC91CC8
:10A1B000A648FFF7CEFF08B1012000E000200028EC
:10A1C000606903D0401C6061012010BD002801DDE2
:10A1D000FFF7A6FF4FF0FF306061E3E770B50E4672
:10A1E0009A4D044600F1807101200D3DB1F1807F50
:10A1F00012D2687131462046FFF7B9FFD0B9A8786E
:10A2000031460028204603D0BDE8704001F072BA04
:10A21000BDE8704000F0B6BCA4F58011B1F5801F18
:10A2200006D2687131462046BDE8704001F025B97C
:10A2300026702078012070BD38B5844C44F6206526
:10A240000D3C1CE0E580E0784C281DD001216846DB
:10A25000FFF71FFF002816D020799DF80010084452
:10A260002071206AFFF7BAFF00280CD0206A401C3A
:10A2700020622089401E2081606A401C6062208923
:10A280000028DFD1012038BD02F012FA8DF800005D
:10A29000E2E700B589B00E208DF8000004208DF8AB
:10A2A000010001208DF80200ED208DF80300FC2054
:10A2B0008DF8040000208DF8050002F0F9F9FC2863
:10A2C0001BD102F0F5F9012817D102F0F1F9272886
:10A2D00002D912218DF805105C490D39897821B910
:10A2E0009DF8051009B900F0CDFB01220621684652
:10A2F00002F0FAF99DF8050010B1002009B000BD88
:10A300000120FBE700B589B00A460E218DF8001048
:10A3100008218DF8011001218DF80210CC218DF853
:10A320000310FC218DF8041000218DF8051010F1A8
:10A33000807113D345480D3883780DF1060013B1B1
:10A3400001F016FA01E000F043FC0028D6D001220B
:10A350000A21684602F0C8F90120CFE70020CDE7C6
:10A3600070B501F006F8002819D0FFF7D9FE0028D3
:10A3700015D000F0E6FB20B101F096F908B10124F8
:10A3800000E00024314D0D3DA87818B101F000FA2D
:10A39000A87818B900F09CFB002800D0204670BDBA
:10A3A00070B5FFF7DDFF002808D002F081F9FC2826
:10A3B00003D102F07DF9082801D0002070BD02F021
:10A3C00077F9044602F074F944EA002402F070F9C7
:10A3D00044EA004402F06CF944EA006402F068F9CF
:10A3E000054602F065F945EA002502F061F945EA03
:10A3F000004502F05DF945EA00612046FFF782FF63
:10A40000C0B270BD10B502F053F9FF2803D102F0BD
:10A410004FF9012801D0002010BD0C480D3880787C
:10A4200020B102F045F901F03DF903E002F040F9F6
:10A4300000F07EFB0028EFD0012010BD009032001C
:10A4400080E100E0005307002004360061C82000CE
:10A4500048C7200010F180720ED3FF48002303612B
:10A460005B1E4361807810B1104601F0BDB869B938
:10A470004FF4004000F0F2BBA0F58012B2F5801F4F
:10A4800004D209B100F0B5BE01F02EB8002070472B
:10A4900010B502F00DF9FF2803D102F009F90428E4
:10A4A00001D00020C9E702F003F9EB4C206202F072
:10A4B000FFF8216A41EA0020206202F0F9F8216ADF
:10A4C00041EA0040206202F0F3F8216A41EA0060AC
:10A4D00001212062FFF7BEFF0028AED00120ACE7CB
:10A4E00010B502F0E5F8FF2803D102F0E1F80428E6
:10A4F00001D00020A1E702F0DBF8D74C206202F087
:10A50000D7F8216A41EA0020206202F0D1F8216ADE
:10A5100041EA0040206202F0CBF8216A41EA006083
:10A52000CE492062884202D14FF48010206200217F
:10A53000FFF790FF002880D001207EE7B0F5B82F0C
:10A540000AD36FF40011C64A0144914204D3A0F526
:10A550008011B1F5801F06D228B1411C03D0C0077D
:10A5600001D0012070470020704710B5FFF7F8FEBA
:10A5700000280AD002F09CF8FC2805D102F098F8D7
:10A58000B54C0428208101D0002056E702F090F855
:10A59000206202F08DF8216A41EA0020206202F078
:10A5A00087F8216A41EA0040206202F081F8216ABE
:10A5B000012241EA00602062A748E1782C30C17096
:10A5C000062102F091F8A06900F18071B1F1807F5D
:10A5D0000DD3A0F580114FF48012914201D2904228
:10A5E00005D84068FFF7AAFF08B1A0692062206A79
:10A5F0000123002142682262A069FFF739FD30B5CE
:10A600000C46C1B00E218DF80010FB2C02D90020A1
:10A6100041B030BD211D8DF8011001218DF80210CF
:10A620004D218DF80310FC218DF8041000218DF8C8
:10A63000051000F180716B46B1F1807F0CD2864825
:10A6400022468078002803F1060002D001F07DF850
:10A650000CE000F050FA09E0A0F58011B1F5801F80
:10A6600007D201462246981D00F0D9FC0028CFD021
:10A6700008E0002104E05D1810F8012BAA71491CC4
:10A68000A142F8D30122A11D684602F02DF8012055
:10A69000BEE710B5FFF764FE002808D002F008F806
:10A6A000FC2803D102F004F8052801D00020C4E6FC
:10A6B00001F0FEFF684C206201F0FAFF216A41EAD6
:10A6C0000020206201F0F4FF216A41EA004020628C
:10A6D00001F0EEFF216A41EA0060206201F0E8FF2C
:10A6E0000146206ABDE8104089E710B501F0E0FF9F
:10A6F000FC2805D101F0DCFF574C0428208101D251
:10A7000000209AE601F0D4FF206201F0D1FF216A17
:10A7100041EA0020206201F0CBFF216A41EA0040BB
:10A72000206201F0C5FF216A41EA006020622089B1
:10A73000001F2081012080E670B5474804211C30AD
:10A74000FFF7A7FC002864D0434C434D1C3420780D
:10A750006178A378E278014413441944297128816F
:10A76000B4F8011049BA29628AB30026022A06D039
:10A77000042A18D0052A2CD0012A4BD056E039BB28
:10A78000022853D1344802211C30FFF782FC0028F4
:10A790003FD0217860782B790A181A4409032A716E
:10A7A00041EA001011E099B902283FD12A4802215C
:10A7B0001C30FFF76EFC28B92078617808442979AD
:10A7C00008442871208840BA0004A8621BE01BE0FE
:10A7D0002CE059BB042829D11F4804211C30FFF765
:10A7E00058FC002815D020786178A2780144E078E0
:10A7F000024411442A7911442971216809BA21F0CF
:10A80000FF010143A9622E81A96A286A08442862CF
:10A81000012070BD014309D10F4801211C30FFF711
:10A8200038FC0028F5D02078FF2801D0002070BD2A
:10A83000FFF796FD0028FAD007492E20491C002278
:10A84000087005480121401C01F04EFF0022012341
:10A850001146501E06E0000054C82000EFEEBEFC7A
:10A86000FEDF0100FFF704FC38B5804C207840F093
:10A870000100207001F02FFFE070217801F08001CD
:10A880002170002121810D2849D00A2847D03A287B
:10A8900013D04C2816D04D2819D04E281CD0CE28C5
:10A8A0001FD05E2822D0E52825D0CC2828D0ED283E
:10A8B0002BD0572831D00F2038BDFFF73DFF38BBD4
:10A8C000042038BDFFF711FF10BB052038BDFFF78E
:10A8D000E0FEE8B9062038BDFFF747FEC0B9072003
:10A8E00038BDFFF7FDFD98B9082038BDFFF7D0FD52
:10A8F00070B9092038BDFFF785FD48B90A2038BD79
:10A90000FFF74EFD20B90C2038BDFFF7C2FC10B197
:10A91000A06928B108E00D2038BD8020207056E0E5
:10A92000208908B1206AA061FFF786FC40B1FFF7DB
:10A93000E9FB38B1E0783A2806D0402804D013E08B
:10A94000102038BD112038BD01216846FFF7A1FB5A
:10A9500040B120799DF80010084410F0FF0F03D09B
:10A96000132038BD122038BD4049E078491C5728D3
:10A9700014D03A2811D001F12B044C2814D0CE2841
:10A980001AD05E2818D0E52816D04D281FD0CC2824
:10A990001DD0ED281BD0152038BD2E20087033485F
:10A9A00000220121401C04E0E07030480122062111
:10A9B0002C3001F099FE0AE0E070FF2020712B4856
:10A9C000012206212C3001F08FFEFC202071002096
:10A9D00038BD30B5264B274C002108460022C5075C
:10A9E00002D083EA500000E04008521C082AF6D347
:10A9F00044F82100491CFF29EFD930BD1B48012331
:10AA000044F620610370C18000F10A0140220A70FF
:10AA100030224A7031228A7000F12C020E2111700E
:10AA2000042151709370FC21117100215171124A5F
:10AA30008170417111704A1EC0E904120F48017003
:10AA400070470F4900208860704730B500224FF4EE
:10AA5000FA6314460A4D05E00021491C9942FCD3D3
:10AA6000AC60521C8242F7D330BD000054C82000B5
:10AA70002083B8EDD8C820009BC8200088C82000DB
:10AA8000009032000FB591490091091D0191091DF7
:10AA90004FF46412029102EB80024FF48041A2F85D
:10AAA000001202095DF822100A8800F00F0301204D
:10AAB000984082430A800FBD10B50120FFF7E2FFE6
:10AAC00000F0A5F900F07EFF81490020087010BD5C
:10AAD00070B500244FF4FA6504E0641CAC4201D167
:10AAE000002070BDA0220221002000F067FA032898
:10AAF000F3D0012070BDF8B506460C461546FFF7A9
:10AB0000E7FF002813D0200A8DF800008DF80140DF
:10AB1000A0220221684600F051FA012806D1A022A5
:10AB20002946304600F053FA012800D00020F8BD35
:10AB300008B500F06BF9012200216846FFF7DBFF42
:10AB400008BD1CB5624C2078D0B16068010A8DF850
:10AB500004108DF80500FFF7BBFF002811D05D49F8
:10AB600044F6206002230880A020009001AA2178EA
:10AB7000594800F08DFE01284FF0000001D12070EF
:10AB800001201CBD2DE9F041514C07460E462078AE
:10AB9000002540B161680844B84205D0FFF7D1FFF5
:10ABA000002813D0257067604B4920780E54401C54
:10ABB000C0B2207061680144890601D0402804D1E8
:10ABC000FFF7BFFF002801D025700120BDE8F0810C
:10ABD0002DE9F04385B007460E4615464FF0FF3489
:10ABE000FFF776FF00280CD0300A8DF810008DF8A2
:10ABF0001160A022022104A800F0E0F9012803D08E
:10AC0000002005B0BDE8F083E846DFF8D09019E0F9
:10AC1000102D01D9102000E02846C6B2A0223146EE
:10AC2000684600F0D4F9002041464A4607E00B5C34
:10AC30006340DBB2401C52F8233083EA1424B04254
:10AC4000F5D3AD1B002DE3D1E0433870010A7970D4
:10AC5000010CB970000EF8700120D2E72DE9F84F11
:10AC60000546FF210020FFF78DFF012444F62066F2
:10AC7000184F4FF0FF08A1464FF0CE0A20E02046C3
:10AC8000641C0021FFF77EFF00281CD0600600D165
:10AC90003E80A00514D1012200216846FFF72BFF5A
:10ACA000002810D09DF8000060B18DF800808DF86C
:10ACB00001908DF802A001220321684601F014FDE5
:10ACC000AC42DCD30120BDE8F88F00001001390050
:10ACD00088C820005AC820006CCE2000D8C82000A8
:10ACE00010B54FF44814A06C20F00300801CA06441
:10ACF0001E20FFF73FF9A06C20F00300A06410BDF8
:10AD000010B54FF44814A06C20F00300A0641E207E
:10AD1000FFF730F9A06C20F00300801CA0641E2017
:10AD2000FFF728F9A06C40F00300A06410BD70B5D7
:10AD3000AB4D686C20F0FF006864686C20F0FF0089
:10AD40006864286840F0030045F84809A54E30685B
:10AD500040F003003060FFF7C3FF1E20FFF70AF941
:10AD60000024A86C20F00300401CA8641E20FFF7FC
:10AD700001F9A86C40F00300A8641E20FFF7FAF860
:10AD8000641CE4B20A2CECD3FFF7AAFF1E20FFF7E5
:10AD9000F1F8FFF7B5FF42F21070FFF7EBF83068FB
:10ADA00020F00300306055F88C0F40F0FF00286061
:10ADB00070BD4FF44813F0221B68042150B11028D5
:10ADC00003D0202803D0302803D0012102E008213D
:10ADD00000E00A21B2FBF1F07047834900B50A7820
:10ADE00022F0B0020A7081490A6822F0B0020A60BB
:10ADF000FFF7DFFFFF2800D9FF207C4AC1B24832AD
:10AE00001160111DC0F34700086000BDE5E77749F8
:10AE1000002000B5091D0860734948700870FFF7ED
:10AE2000DCFF7348016821F0FF01016000BD6F493C
:10AE300010B5091D0868C0B2820717D500220A6044
:10AE4000400701D5032010BD6749C87860B1674B42
:10AE5000002008334A6804E013F820401454401CD2
:10AE6000C0B2CC78A042F7D3012010BD002010BDA5
:10AE700010B5002404E0641C600701D1FFF7E1FD78
:10AE8000FFF7D5FF0028F6D010BD584810B5001DBB
:10AE90000068C00705D0FFF7EBFF53498870012019
:10AEA000487010BD2DE9F047DFF840A1DDE90859F1
:10AEB0000AF1040A4FF00008CAF800804446641CF6
:10AEC000E4B2282CFBD3494C483C2560251D43B1F6
:10AED000002404E0165D05F82460641CE4B29C4282
:10AEE000F8D3DFF804C1B9F1000F05D0CA18D4B205
:10AEF0008CF80380002211E0CCF804008CF80310D9
:10AF00000C4601206BB143EA4110C4B2032008E0B3
:10AF1000865CD718521C05F82760D2B28A42F7D354
:10AF200000209CF8001008433049091F0C60091DDF
:10AF300008600121CAF80010BDE8F0872DE9FC4740
:10AF40008146DDE90AA70D4616469846FFF79DFFA4
:10AF50002FE0102127B1012F02D1C8F11000C1B29A
:10AF60008D4200D2E9B2CDE900A70C4643463246F5
:10AF70004846FFF797FFFFF77BFF01281CD1281BEE
:10AF8000A14485B2B8F1000F13D0A8F10100C0B2FE
:10AF9000315C2144C9B23154A1420AD207E0401EBB
:10AFA000C0B2315C491C11F0FF01315401D10028BD
:10AFB000F5D1002DCDD10120BDE8FC871CB50123C2
:10AFC000CDE9002300231A46FFF7B8FF1CBD1CB5CE
:10AFD0000023CDE900231A46FFF7B0FF1CBD000097
:10AFE0004800320020C4320090C8200048053600D6
:10AFF0008C0032000020FF4A01461154401C2028DA
:10B00000FBD3FD48C17041704FF44810FB49016704
:10B01000416E21F01F0141F01E014166704705E0BD
:10B0200011F8013B521E00F8013BD2B2002AF7D1C1
:10B030000120704770B500220488F14D13460C8042
:10B0400004880E88A64201D1521C01E00C80002227
:10B050005B1CAB4201D1002070BD642AF0D30120FB
:10B0600070BD10B502EB420201F0800301E0521EF8
:10B0700011D0048804F08004A342F8D14FF4801367
:10B08000F0221A80052201E0521E04D003888B4270
:10B09000FAD1012010BD002010BDDA49AA220A8091
:10B0A000D94B55221A8008807047D849AA220A80B5
:10B0B000D74B55221A80088070474FF48012F02138
:10B0C0001180CD494978012904D0022903D00329F0
:10B0D00001D0FEE7E9E7E0E730B505460C46A020E1
:10B0E000FFF7EBFFC4482C804278012A05D0022AE2
:10B0F00005D0032A03D0002030BD142201E04FF414
:10B10000B47221462846BDE83040AAE7F0B5BA4CF3
:10B110006078002869D14FF480152888698841F249
:10B1200034222A8045F278636B802B88934204D1C5
:10B13000288069800420607057E09020FFF7B5FFF9
:10B1400028880126BF2818D19020FFF7AEFF688815
:10B150004FF49E71B1EB501F0DD0C91EB1EB501FC3
:10B1600009D040F29B21B1EB501F04D04FF49D71E8
:10B17000B1EB501F01D1667037E09020FFF78DFFD3
:10B180002888002701281BD19020FFF786FF6888B8
:10B1900040F215120221B2EB501F01D1617023E081
:10B1A0004FF48B72B2EB501F05D16170A6704FF453
:10B1B000FE10A06019E04FF48972B2EB501FEDD081
:10B1C0009020FFF76AFFB5F80002F0262E801C28B9
:10B1D0000DD19020FFF761FF68882E80A0F50851FF
:10B1E000BA3904D103206070A7700120F0BD00209F
:10B1F000F0BD2DE9F0430446FFF788FF002875D025
:10B200007D4F7878042813D0C4F30B00261AA6F5D6
:10B2100080152C0BFF2C0BDC8020FFF74EFF78787D
:10B22000AA225521012804D0022806D0032804D0E0
:10B230009DE0764B1A80764A02E0724B1A80724A81
:10B2400011803021B8460127DFF8A8C131804FF6C0
:10B25000FF79012813D146F2A81249463046FFF77C
:10B2600000FF60B1E01704EB50700CEBE00120F040
:10B2700007000A78201A87403A430A7074E098F869
:10B2800001004146022801D0032870D18A7852B1CA
:10B29000D8F808108E422DD30425E11704EB9171E4
:10B2A00021F003011BE0B5F5803F06D31025E1171F
:10B2B00004EB117121F00F0111E0B5F5004F06D339
:10B2C0000825E11704EB517121F0070107E0B5F5FE
:10B2D000804F0CD304EBD471022521F00101611AD7
:10B2E000641A02280FD0032826D040E03DE0042550
:10B2F0000024F6E7A1F580429642EBD2A1F5404149
:10B300008E42DDD2D2E7434A49463046FFF7A9FED6
:10B3100078B92CE0E01704EB50720CEBE20022F05D
:10B320000702A21A017807FA02F21143641C0170A5
:10B330006D1E002DEED117E0374A49463046FFF723
:10B3400090FE78B913E0E01704EB50720CEBE200CA
:10B3500022F00702A21A017807FA02F21143641CD4
:10B3600001706D1E002DEED10120BDE8F08300209C
:10B37000FBE778B5204E0024F07810B31D4DC107CF
:10B38000A5F120050FD071680844401E6946FFF7FB
:10B3900051FE002816D0BDF800000124010AF07803
:10B3A0002954401CF070FFF7B1FE00280AD07078D5
:10B3B000012808D0022806D0032804D0042845D04C
:10B3C00059E0012078BD7068A0F58011090BFF29B4
:10B3D00051D8084A01F0070302EBD102012112788B
:10B3E00099400A4221D1FFF704FF0028EAD03178C2
:10B3F000FF2013E0CCCE200098C8200002030A0AE8
:10B40000C0270900AA0A100054051000AAAA1000BB
:10B410005455100080841E008096980001B1287059
:10B420001CB1F178294401F8010C00240AE0281924
:10B430000188ADF8001070682044FFF74DFE002829
:10B44000C0D0A41CF0788442F1D311E000207368CE
:10B450000BE029180A881918ADF800200A8009881D
:10B46000BDF80020914206D1801CF1788842F0D3CB
:10B470000020F070A5E7002078BD2DE9F841454E89
:10B480000446454FF0788846002540B1716808446D
:10B49000A04215D0FFF76DFF002823D0F57035705E
:10B4A000E0070CD0641E69462046FFF7C3FD002864
:10B4B00018D0BDF8000038700120F0703070746052
:10B4C000F07807F80080401CC0B2F0707168014449
:10B4D000090501D0202804D1FFF74BFF002801D037
:10B4E000F5700120BDE8F881F0B5FFF70FFE0028E8
:10B4F0004CD0284E7078042849D08020FFF7DDFD1D
:10B50000254D7078AA2155221023FF2420354FF6AF
:10B51000FF774FF4801C012804D0022813D00328A1
:10B5200011D034E01D4801801D490A8003801D4A66
:10B5300039466046FFF795FD50B100202C54401C61
:10B540002028FBD321E01848018018490A80038095
:10B55000707802280BD1164A39466046FFF781FD04
:10B5600028B100202C54401C2028FBD30DE070781B
:10B5700003280CD10F4A39466046FFF772FD30B1FF
:10B5800000202C54401C2028FBD30120F0BD0020BB
:10B59000F0BD000098C82000ACCE2000AAAA100080
:10B5A00054551000A0860100AA0A1000540510008E
:10B5B0008096980000E1F505794A00215054491C15
:10B5C0004029FBD3704710B5030BDA0803F00703DB
:10B5D00001249C40E3B2724CC00B205C09B11843BB
:10B5E00000E09843A05410BD10B504466D480078A3
:10B5F00008B1002010BD6B484268926851B14FF409
:10B600008051204690470028F4D001212046FFF7C2
:10B61000DAFF08E06FF07041204690470028E9D03B
:10B62000FF20FFF7C9FF012010BD2DE9F0470746B5
:10B630000C46DFF86C9123E03D0BEE0805F00700A7
:10B640000121814001F0FF0819F8061011EA080FE6
:10B650000BD101213846FFF7C7FF002813D019F896
:10B66000061041EA080109F8061040F6FF7000EBE9
:10B670000530C11B4A1CA24204D2641A641E471C36
:10B68000002CD9D10120BDE8F087464910B5002033
:10B6900008704880FFF790FF00F0ACF900F06FFAF7
:10B6A000C0B210BD0120704770B53E4D287808B17A
:10B6B000002070BD6988B9B1AC68204604F180747F
:10B6C000B4F1807F00D304462046FFF7AEFF002888
:10B6D000EFD06868344A69880368204698476988CB
:10B6E000884203D1012002E0012070BD002000212A
:10B6F000698070BD2DE9F0412A4C07460E4620783E
:10B7000010B10020BDE8F0816088002540B1A1683B
:10B710000844B84205D0FFF7C7FF0028F2D0658083
:10B72000A760214960880E54401C80B26080A168E7
:10B730000144090502D0B0F5807F04D1FFF7B4FFC2
:10B740000028DFD065800120DCE770B5064615488B
:10B750000D461446017849B940683246214643688F
:10B7600028469847A04201D1012070BD002070BD3D
:10B7700070B505460B480C46114602780AB1002008
:10B7800070BD40682A46036920469847C0B270BD24
:10B79000044810B54068C0688047012010BD000013
:10B7A000ECCF2000B8C82000ECCE2000894801680A
:10B7B00021F0FF010160704710B5FFF7A1FA86483C
:10B7C000016821F00301016084488068400002D5CF
:10B7D000BDE81040EAE710BD2DE9F0414FF44B16EB
:10B7E00001243068016821F001010160DFF8E8817F
:10B7F000A8F12008D8F80000016821F001010160DB
:10B800004FF44815A86C20F00300801CA864734F07
:10B810007868FEF7AFFB30680068C00700D00324EB
:10B820007868FEF7A7FBA86C20F00300A86478688E
:10B83000FEF7A0FBD8F80000016841F001010160AB
:10B840003068016841F0010101602046BDE8F081E7
:10B850006048016821F0FF010160016841F02201A8
:10B86000016070475D4810B58068400001D5FFF762
:10B87000EFFF4FF44810816C41F00301816456489A
:10B88000016841F003010160BDE81040FFF728BAEC
:10B890002DE9F0470546DDF820800C0016461F46CE
:10B8A0003BD0FFF7DFFFDFF82C91DFF834A1A9F1DF
:10B8B000440928F0010052464946FEF762FBFFF7B3
:10B8C0008BFF804601280AD110E030785246494665
:10B8D000FEF757FBFFF780FF8046012804D0FFF7F3
:10B8E0006BFF4046BDE8F087761C7F1E002FECD131
:10B8F0004E4684B1287852463146FEF742FBFFF7A8
:10B900006BFF0746012803D0FFF756FF3846E9E7EB
:10B910006D1C641EEDE7FFF74FFF0120E2E710B555
:10B920002E4CFF22A368C3F3011003F00701C000EF
:10B93000C3F30113DB009A4004290DD2294B53F8BD
:10B9400021301340C3402360264B103353F821109D
:10B950001140C140616010BD23491140C1402160C8
:10B9600022490A40C240626010BD1C4A916821F021
:10B97000300101439160D2E710B50446FFF768FF3C
:10B98000FFF7D5F9600002D5FFF710FF01E0FFF7E0
:10B990005FFF1249200C00048A6810438860002C65
:10B9A00005DA4FF44812126802F0070201E004F0D1
:10B9B0000702024304F030008A60FFF7D6FFBDE8BB
:10B9C0001040ACE70A48D7E70448806870477047E2
:10B9D000704700008C00320020C43200C4C8200030
:10B9E0001001390050C72000110601010A010101B0
:10B9F00012000040F748017821F001010170F5497B
:10BA00000020C91E887001207047704710B5F14CA6
:10BA1000207800070DD5AB2000F0B9FC0020B4F968
:10BA2000021000E0401C8142FCD8207820F0080081
:10BA3000207010BD10B5E74C2078C00703D100F08E
:10BA40009EF800280AD0E348C01E0078000605D5FD
:10BA5000FFF7DCFF207820F01000207010BD1CB52F
:10BA600005208DF8040001226B4601A9104600F064
:10BA700052FD9DF800001CBD70B5D64C0546E41E75
:10BA80002078C00603D5502000F081FC06E0062097
:10BA900000F07DFCFFF7E3FF8007FBD5207800076F
:10BAA00003D5FFF7DCFFC007FBD1012000EB052029
:10BAB00000F094FC2078000703D5FFF7D0FFC00703
:10BAC000FBD170BD70B58007050FFFF7C8FF00F010
:10BAD000F3042C432046FFF7CFFFBE49C91E097867
:10BAE000C90703D02046BDE87040C5E770BD10B55A
:10BAF000FFF7B5FF00F00C00800810BD7FB5040013
:10BB00004FF09F008DF800004FF015008DF80400F5
:10BB10004FF09000029000D103ACAB2000F037FC56
:10BB20004FF4C3710020401C80B28842FBD32346EF
:10BB300003226946012000F0EEFC207820B1FF28A6
:10BB400002D0032004B070BD2346022201A90120C7
:10BB500000F0E1FC0025A570207808B1FF280AD18B
:10BB60002346022202A9042000F0D5FCA57020780B
:10BB700018B1FF2801D00220E4E70020E2E72DE918
:10BB8000FC5F4FF4481B0BF18C010D684E684FF4BD
:10BB9000641A0AF50270DAF8FC71DAF88082DAF8D1
:10BBA00084924FF011020A604FF440724A604FF4E1
:10BBB0000861CAF8FC114FF4806181674FF48C4131
:10BBC000C1674FF00000034602460146009042F66E
:10BBD000E06000F0BBFB7F4C207820F0010020707B
:10BBE00001A8FFF78BFF00285DD0A4F103099DF8A1
:10BBF00005C0794E9DF806509DF804300021C846D6
:10BC0000C1EBC102B75C874220D1324457789F42D2
:10BC10001CD19778674519D1D778AF4216D1C1EBBF
:10BC2000C1003044007989F80100907988F800005B
:10BC30002078617020F02C0040F0010020E0FFF738
:10BC400056FF10B30020FFF73DFF1EE0491CC9B2AC
:10BC50000729D5D3202B1DD0A12B1DD00820607023
:10BC60006078C0EBC0003044807988F8000005F0AF
:10BC70000F0089F80100207820F00C0040F021002E
:10BC8000207099F802000028D9D0FFF7D3FE0120D8
:10BC9000BDE8FC9F0720E2E798F8000040F01000A4
:10BCA00088F80000DCE70BF18C0005604660CAF8FC
:10BCB000FC71CAF88082CAF884924FF00000E7E76E
:10BCC00010B5FFF7CCFEC007FBD110BD2DE9FC413C
:10BCD00007460C00154601AE64D0FFF7F1FF0620C1
:10BCE00000F055FB38BA20F0FF00801C01903B4863
:10BCF000016821F0020101603949086820F4006000
:10BD00000860384B4FF0000016F8012B1A6000F164
:10BD100001000428F8D3086840F400600860304847
:10BD20004FF40027243007602D4A0426121D1660A8
:10BD300006683603FCD52BE02E781E606E781E60F8
:10BD4000AE781E60EE781E602E791E606E791E60E1
:10BD5000AE791E60EE791E602E7A1E606E7A1E60CD
:10BD6000AE7A1E60EE7A1E602E7B1E606E7B1E60B9
:10BD7000AE7B05F10F051E600E6846F400660E608E
:10BD800007604FF00F06166006683603FCD50F3CBF
:10BD90000F2CD1D801202146009000232A460846C6
:10BDA00000F081FBBDE8FC8190E70A4810B5C01E99
:10BDB000007800060CD5074C2078C10608D540074E
:10BDC00006D4B92000F0E3FA207840F00800207093
:10BDD00010BD0000D3C8200070C720001801390032
:10BDE00000063600040736002DE9F74783B00E46FB
:10BDF0009046FFF70BFEFE480078C00703D1FFF71F
:10BE0000BEFE00280DD05EB1DFF8E493A9F103096E
:10BE10004C4699F8020038B10020FFF753FE11E0BC
:10BE2000002006B0BDE8F0872078C00603D550207A
:10BE300000F0ADFA06E0062000F0A9FAFFF70FFEC9
:10BE40008007FBD5207841062DD5800701D58024B9
:10BE500001E04FF480740398B0FBF4F104FB11008F
:10BE6000251AB54200D93546701BB0FBF4F704FB28
:10BE7000170A424629460398FFF796FF039828447D
:10BE80004544039007E021460398FFF78DFF039890
:10BE90002544204403907F1E2A46F4D2514603983D
:10BEA000FFF782FF37E0062000F071FA012E3CD048
:10BEB000AF208DF804009DF80E008DF805009DF868
:10BEC0000D008DF806009DF80C008DF8070098F81D
:10BED000000001278DF80800052108F101043B4608
:10BEE00001AA0846009700F0DEFAFFF7E9FE751E8A
:10BEF0000ED014F8010B8DF805000221012301AAD0
:10BF00000846009700F0CFFAFFF7DAFE6D1EF0D179
:10BF1000042000F03CFA99F8020010B10320FFF76A
:10BF2000D1FDFFF742FF30467BE70220C1E72DE954
:10BF3000F743AF4800260C4600781546C00702D1EB
:10BF4000FFF71DFEE8B3E4B3FFF7BAFEFFF75EFDAF
:10BF5000A8489DF802109DF801209DF80080036814
:10BF6000032723F4F04303604FF46419D9F818C190
:10BF70002CF0020CC9F818C19F4B1F6019601A60A1
:10BF8000C3F80080016841F400610160994B4FF4EF
:10BF9000002724331F6000F104080421C8F80010B2
:10BFA00019680903FCD5016821F4F04101604FF4E0
:10BFB0004811096B016841F440510160DFF838C253
:10BFC00000E002E0ACF1040C19E03046BDE8FE836D
:10BFD0000F2C01D90F2100E021461F60C8F8001086
:10BFE00018680003FCD5002004E0DCF8002005F808
:10BFF000012B401C8842F8D31F60641A0E44002CA9
:10C00000E6D1D9F8181141F00201C9F81811DCE79E
:10C010008DE72DE9F74F76480C46164600784FF02D
:10C02000FF35C00743D0E4B3FFF74AFEFFF7EEFC4D
:10C0300070489DF802109DF801209DF8008003686B
:10C04000032723F4F04303604FF4641ADAF818C1AD
:10C050002CF0020CCAF818C1674B1F6019601A60F7
:10C06000C3F80080016841F400610160614F4FF442
:10C07000002C2437C7F800C00421021D1160396864
:10C080000903FCD5016821F4F04101604FF4481127
:10C09000096B016841F4405101609146DFF8588115
:10C0A00000E003E0A8F10408544B1EE00020BDE8C6
:10C0B000FE8F0F2C01D90F2100E02146C7F800C0E8
:10C0C000C9F8001038680003FCD5002008E0D8F853
:10C0D00000206A40D2B2401C53F8222082EA152583
:10C0E0008842F4D3C7F800C0641A002CE1D1DAF812
:10C0F000181141F00201CAF81811E8433070010A22
:10C100007170010CB170000EF0700120CFE780E774
:10C11000374810B50078C00703D1FFF730FD00287D
:10C1200004D03348C01E4078401C000450E62DE97E
:10C13000F8432F4F05464FF0000938780E464C461D
:10C14000C00703D1FFF71BFD00286FD0FFF7B8FD34
:10C15000FFF75CFCDFF89880A8F1030898F802006C
:10C1600028B1FFF7C4FC81460020FFF7ABFC062096
:10C1700000F00DF97A78062A0FD02149B6F5805FD4
:10C1800012D802EBC20201EB420128BA097B20F06F
:10C19000FF00084300F04EF919E0194928BA20F0D1
:10C1A000FF0091F87A10F4E7B6F5004F08D802EBDB
:10C1B000C20201EB420128BA20F0FF00497BE8E708
:10C1C00002EBC20001EB4000C07B00F0E0F8FF256D
:10C1D0000126CE27FFF743FCC0071BD0641C2004B8
:10C1E000000CF7D18DF800508DF801600AE00000D6
:10C1F000D3C820000006360004073600D8C8200047
:10C20000AFC720008DF8027001220321684600F0BC
:10C210006BFADFE798F8020010B14846FFF752FCCE
:10C22000042000F0B4F8FFF7C0FD0120BDE8F8835A
:10C23000F0B5444F0646A1B038780D461446C00705
:10C2400003D1FFF79CFC002820D0387840F0040090
:10C2500038700BE080212846FFF7DAFE6A4680211D
:10C260003046FFF7C1FD80368035803C802C6A4621
:10C27000F0D821462846FFF7CBFE38786A4620F0F2
:10C280000400387021463046FFF7AEFD21B0F0BD06
:10C2900010B52C4C2078C00703D1FFF770FC0028A4
:10C2A0004FD02848C01E007800064AD54FF44810E9
:10C2B000006800F00F01244805293AD2DFE801F0B8
:10C2C000030D25392F006178C1EBC1010844407985
:10C2D000C01E00EB4000000106E06178C1EBC10127
:10C2E0000844407940018038C11700EB91708010FC
:10C2F000608000B2002801DA00206080207840F0E1
:10C3000010002070BDE810404FE56178C1EBC1011D
:10C3100008444079801F00EB4000C000E4E76178EA
:10C32000C1EBC101084440790C3800EB40008000AB
:10C33000DAE76178C1EBC101084440790001903827
:10C34000D2E745E5D3C8200070C72000C8490A6875
:10C3500042F002020A6045F6C051B1FBF0F04FEA2C
:10C360004002C448A2F10202016841F001010160EB
:10C37000C24BC1491960016F41F04001016721F0D2
:10C3800040010167BE481860BE48026070474FF424
:10C390006413D3F8181121F00201C3F81811B7493A
:10C3A0000A6822F4F0420A60B64AD4321060086883
:10C3B00040F400600860B3484FF400210C3801607D
:10C3C000AE4A0121121D116001680903FCD5D3F8A2
:10C3D000180140F00200C3F81801704710B54FF47F
:10C3E0006413D3F8181121F00201C3F81811C1B277
:10C3F0004FEA1022A148046824F4D0440460A14C00
:10C40000D43421602260016841F4006101609D48DC
:10C410004FF400210C380160984A0221121D11606E
:10C4200001680903FCD5D3F8180140F00200C3F8F5
:10C43000180110BD38B54FF46412D2F8181121F06C
:10C440000201C2F818118DF80000010A8DF80110E0
:10C45000010C8A4B8DF80210000E8DF8030018684D
:10C4600020F4D0401860874C00206946D4340D5C1D
:10C470002560401C0428FAD3186840F40060186056
:10C4800080484FF400210C3801607C4B04211B1DB7
:10C49000196001680903FCD5D2F8180140F00200C8
:10C4A000C2F8180138BDF0B50028DDF814C031D04D
:10C4B00000292FD0714D4FF464144BB1D4F81831CA
:10C4C00023F00203C4F818312B6823F4D0432B6007
:10C4D0006C4E0023D43603E012F8017B37605B1CFE
:10C4E0008B42F9D3BCF1000F14D0296841F40061EC
:10C4F000296064494FF400220C390A605F4A121D1A
:10C50000106008680003FCD5D4F8180140F0020060
:10C51000C4F81801F0BD2DE9F0479A4600287DD0F7
:10C52000002A7BD04FF46419D9F8184124F0020492
:10C53000C9F81841DFF84481D8F8003023F4F043FB
:10C54000C8F800304F4BD0331C681C681C681C684E
:10C550001C681C681C681C681C681C681C681C68BB
:10C560001C681C681C68C41DE50800F007061C1D3B
:10C57000AC46082E1FD2DFE806F004191613100D82
:10C580000A0711F8017B276011F8017B276011F879
:10C59000017B276011F8017B276011F8017B276080
:10C5A00011F8017B276011F8017B276011F8017BEE
:10C5B00027606D1EE5D1D8F8001041F46051C8F82D
:10C5C000001030494FF400240C390C602E4C1044FC
:10C5D000206008680003FCD55046082E18D2DFE81A
:10C5E00006F00412100E0C0A08061968017019688A
:10C5F0000170196801701968017019680170196873
:10C6000001701968017019680170BCF1010CECD15E
:10C61000D11DC90802F00702082A00E026E01FD257
:10C62000DFE802F004191613100D0A071A6800F863
:10C63000012B1A6800F8012B1A6800F8012B1A6800
:10C6400000F8012B1A6800F8012B1A6800F8012B7A
:10C650001A6800F8012B1A6800F8012B491EE5D171
:10C66000D9F8181141F00201C9F81811BDE8F08796
:10C670001801390094003200210233000006360010
:10C680002002330030063600040636002D480168CB
:10C6900041F040010160016821F020010160016862
:10C6A00021F04001016027490020103108607047E7
:10C6B00070B5244901200C31086008254FF4581446
:10C6C000FEF7BFF9C4F88450D4F884000007F7D40B
:10C6D000E069C0B270BD10B5FFF7EAFF012802D1D2
:10C6E000BDE81040E4E710BDF0B502B1012202261A
:10C6F0004FF45815C5F88460D5F884309B07F9D5F8
:10C70000042700291DD08B180F2B01D80B4602E0FF
:10C71000C2F10F039BB20AB1EF610022A1EB03014A
:10C7200089B202E010F8014BEC611C00A3F1010397
:10C730009BB2F7D1C5F88460D5F884309B07F9D552
:10C74000DFE7F0BD2004360001080001060000000C
:10C750002007040316050302170502011106010153
:10C760001B06040311050302120302010A01010161
:10C7700003C220140F03EC031F6601011E6D031F8B
:10C780006500001EEE02BF480000FF3002BF4900F6
:10C7900001FF3003C220100003EC03202013071E0A
:10C7A000EC03BFFF140F1E300320FF140F1EEC0616
:10C7B000049F0501030B0202FFFFFF20D8D8C7B971
:10C7C000AB06049F0501030B0202FFFFFF20D8D830
:10C7D000C7FFFF060415050103FF0202FFFFFF204C
:10C7E000525262B9AB0604900501030B0202AF502E
:10C7F000FFFF20D8C7FFFF0604900501030B0202CC
:10C80000AF50FFFF20D8C7FFFF06049F0501030BB1
:10C810000202FFFFFF20D8D8C7B9AB06049F05016D
:10C82000030B0A02FFFFFF20D8D8C7B9AB06049F4D
:10C830000501030B0202AD50FF202020C7FFFF06B9
:10C84000049F0501030B0202FFFFFF20D8D8C7B9E0
:10C85000AB0000000000000000000000000000002D
:10C8600000000000000000000000000000000000C8
:10C8700000000000000000000000000000000000B8
:10C8800000000000000000000000000000000000A8
:10C890000000000000000000000000000000000098
:10C8A00000000000E9BD200011C020002FC12000C1
:10C8B000C1BC20000FC1200000000000A4C820005F
:10C8C0000000000001000000010000000000000066
:08C8D000000000000000000060
:0400000500209F0137
:00000001FF
